:100000000C945C000C9479000C9479000C947900A9
:100010000C9479000C9479000C9479000C9479007C
:100020000C9479000C9479000C9479000C9479006C
:100030000C9479000C9479000C9479000C9479005C
:100040000C9427010C9479000C9479000C9479009D
:100050000C9479000C9479000C9479000C9479003C
:100060000C9479000C947900000000002400270013
:100070002A0000000000250028002B0004040404CE
:100080000404040402020202020203030303030342
:10009000010204081020408001020408102001021F
:1000A00004081020000000080002010000030407FB
:1000B000000000000000000011241FBECFEFD8E0B8
:1000C000DEBFCDBF11E0A0E0B1E0EAE1F4E002C0A4
:1000D00005900D92A431B107D9F721E0A4E1B1E078
:1000E00001C01D92AD31B207E1F70E9471010C947D
:1000F0000B020C94000090E0FC01EC55FF4F2491A2
:10010000FC01E057FF4F3491FC01E458FF4FE491AC
:10011000EE2309F43CC0222339F1233091F038F466
:100120002130A9F0223001F584B58F7D12C027302F
:1001300091F02830A1F02430B9F4809180008F7DB7
:1001400003C0809180008F77809380000DC084B5BC
:100150008F7784BD09C08091B0008F7703C08091F4
:10016000B0008F7D8093B000F0E0EE0FFF1FEE58DF
:10017000FF4FA591B4919FB7F894611104C08C9181
:100180003095382302C0EC913E2B3C939FBF0895DD
:100190003FB7F8948091190190911A01A0911B0129
:1001A000B0911C0126B5A89B05C02F3F19F0019600
:1001B000A11DB11D3FBFBA2FA92F982F8827820FED
:1001C000911DA11DB11DBC01CD0142E0660F771F3D
:1001D000881F991F4A95D1F708958F929F92AF92E9
:1001E000BF92CF92DF92EF92FF926B017C010E944F
:1001F000C8004B015C01C114D104E104F104F1F029
:100200000E94C800DC01CB0188199909AA09BB0921
:10021000883E9340A105B10570F321E0C21AD108D0
:10022000E108F10888EE880E83E0981EA11CB11C3D
:10023000C114D104E104F10419F7DDCFFF90EF9070
:10024000DF90CF90BF90AF909F908F9008951F92B6
:100250000F920FB60F9211242F933F938F939F937A
:10026000AF93BF938091150190911601A091170152
:10027000B09118013091140123E0230F2D3720F4A1
:100280000196A11DB11D05C026E8230F0296A11DF0
:10029000B11D209314018093150190931601A09332
:1002A0001701B09318018091190190911A01A09142
:1002B0001B01B0911C010196A11DB11D8093190174
:1002C00090931A01A0931B01B0931C01BF91AF91B1
:1002D0009F918F913F912F910F900FBE0F901F9084
:1002E0001895789484B5826084BD84B5816084BD9E
:1002F00085B5826085BD85B5816085BD80916E00C4
:10030000816080936E0010928100809181008260F4
:100310008093810080918100816080938100809131
:1003200080008160809380008091B1008460809320
:10033000B1008091B00081608093B00080917A001C
:10034000846080937A0080917A00826080937A0042
:1003500080917A00816080937A0080917A00806831
:1003600080937A001092C10022E030E0F901E0575A
:10037000FF4F4491F901E458FF4F8491882399F08D
:1003800090E0880F991FFC01E859FF4FA591B491A7
:10039000FC01EE58FF4F859194918FB7F894EC9142
:1003A000E42BEC938FBF2F5F3F4F2A303105F1F6DE
:1003B00090E0C92E90E0D92E80E0E82E81E0F82E62
:1003C000C2E0F7016081F2E0EF0EF11C8C2F0E9479
:1003D0007B0068EC70E080E090E00E94ED0000E0BF
:1003E00011E0F80160810E5F1F4F8C2F0E947B008F
:1003F00060E273E080E090E00E94ED00F1E0043103
:100400001F0779F7CF5FCA30E1F6C114D104A1F21A
:0A0410000E940000D1CFF894FFCF46
:10041A003F0006005B004F0066006D007D0007008C
:04042A007F006700E8
:00000001FF
