:100000000C9463000C948B000C948B000C949C0358
:100010000C949C030C949C030C948B000C948B000C
:100020000C948B000C948B000C948B000C948B0024
:100030000C948B000C948B000C948B000C948B0014
:100040000C945F060C948B000C94E4020C94BE029A
:100050000C948B000C948B000C948B000C948B00F4
:100060000C948B000C948B000000000024002700EF
:100070002A0000000008000201000003040700003D
:1000800000000000000000000000230026002900FE
:1000900000000000250028002B00040404040404D0
:1000A0000404020202020202030303030303010227
:1000B00004081020408001020408102001020408F6
:1000C00010200A09E80811241FBECFEFD8E0DEBFD8
:1000D000CDBF22E0ACEAB1E001C01D92A73DB2075E
:1000E000E1F711E0A0E0B1E0E4E5F9E102C005903C
:1000F0000D92AC3AB107D9F710E0C2E6D0E004C0E7
:100100002197FE010E94920AC136D107C9F70E94C9
:10011000A9060C949D0C0C9400000895CF92DF92D8
:10012000EF92FF920F931F93CF93DF936C017A01AD
:100130008B01C0E0D0E0CE15DF0581F0D8016D91D4
:100140008D01D601ED91FC910190F081E02DC60169
:100150000995892B11F02196EECF7E01C701DF9121
:10016000CF911F910F91FF90EF90DF90CF90089566
:10017000FC01538D448D252F30E0842F90E0821BAD
:10018000930B541710F0CF96089501970895FC0132
:10019000918D828D981761F0828DDF01A80FB11DBE
:1001A0005D968C91928D9F5F9F73928F90E00895E2
:1001B0008FEF9FEF0895FC01918D828D981731F09C
:1001C000828DE80FF11D858D90E008958FEF9FEFF0
:1001D0000895FC01918D228D892F90E0805C9F4FC6
:1001E000821B91098F739927089580EF91E00E94F7
:1001F000E90021E0892B09F420E0822F0895FC0119
:10020000848DDF01A80FB11DA35ABF4F2C91848D9F
:1002100090E001968F739927848FA689B7892C93D4
:10022000A089B1898C91837080648C93938D848D27
:10023000981306C00288F389E02D80818F7D80832A
:100240000895EF92FF920F931F93CF93DF93EC01EA
:1002500081E0888F9B8D8C8D981305C0E889F98982
:10026000808185FD26C0F62E0B8D10E00F5F1F4F9D
:100270000F731127E02E8C8DE8120CC00FB607FC0F
:10028000FACFE889F989808185FFF5CFCE010E94F8
:10029000FF00F1CF8B8DFE01E80FF11DE35AFF4FF8
:1002A000F0829FB7F8940B8FEA89FB898081806286
:1002B0000AC09FB7F894EE89FF896083E889F989BD
:1002C00080818370806480839FBF81E090E0DF91B4
:1002D000CF911F910F91FF90EF900895CF93DF93EF
:1002E000EC01888D8823C9F0EA89FB89808185FD2E
:1002F00005C0A889B9898C9186FD0FC00FB607FC8F
:10030000F5CF808185FFF2CFA889B9898C9185FFCF
:10031000EDCFCE010E94FF00E7CFDF91CF9108958E
:1003200080E090E0892B29F00E94F50081110C9467
:10033000000008952091EE013091EF012817390750
:1003400071F49091EC018091ED01981741F0E091EA
:10035000EC01F0E0E455FE4F808190E008958FEFCE
:100360009FEF089508951F93CF93DF93DC015C9670
:100370008D919C915D97009739F421E030E01396C0
:100380003C932E9312973BC05196ED91FC9152975E
:1003900050962C915097322F30951FB75E964C9106
:1003A0005E97742F727041FD6095F89440817723B9
:1003B00011F0422B01C043234083EC012197F1F758
:1003C00048E0508160FF02C0522B01C0532350838C
:1003D000EC012197F1F76695415099F780817723D9
:1003E00019F08323808302C0282B20831FBF5C96D3
:1003F0008D919C915D970197F1F781E090E0DF91FD
:10040000CF911F9108952091EE013091EF012817AF
:10041000390771F48091ED012091EC0190E0805C4E
:100420009F4F821B910960E470E00E946A0A089560
:1004300080E090E008952091EE013091EF012817BF
:100440003907B9F49091EC018091ED01981789F08A
:10045000E091EC01F0E0E455FE4F80812091EC0149
:1004600030E02F5F3F4F2F7333272093EC0190E054
:1004700008958FEF9FEF089580E090E00895611553
:10048000710579F0FB0101900020E9F73197AF0188
:10049000461B570BDC01ED91FC910280F381E02DAE
:1004A000099480E090E008950E947F0C0F931F93C1
:1004B000CF93DF93EC0188819981009729F02A81FD
:1004C0003B812617370788F48B016F5F7F4F0E94AF
:1004D000B90B009761F0998388831B830A832C8171
:1004E0003D81232B11F4FC01108281E001C080E0EA
:1004F000DF91CF911F910F910895CF93DF93EC017E
:1005000060E08E810E94320561E08E810E9432059A
:1005100060E08E810E9432058BE891E00197F1F74F
:10052000DF91CF910895EF92FF920F931F93CF9396
:10053000DF93EC017B018A01BA010E9456022881F7
:10054000398181110DC02115310519F0C9010E94B1
:10055000300B198218821D821C821B821A8206C0EF
:100560001D830C83B701C9010E94960CCE01DF9157
:10057000CF911F910F91FF90EF9008951F920F92CE
:100580000FB60F9211242F933F934F935F936F9366
:100590007F938F939F93AF93BF93EF93FF9380EFDE
:1005A00091E00E94FF00FF91EF91BF91AF919F9169
:1005B0008F917F916F915F914F913F912F910F900C
:1005C0000FBE0F901F9018951F920F920FB60F92AB
:1005D00011242F938F939F93EF93FF93E091000249
:1005E000F09101028081E0910602F091070282FD04
:1005F00012C09081809109028F5F8F7320910A024F
:10060000821751F0E0910902F0E0E051FE4F958F22
:100610008093090201C08081FF91EF919F918F919A
:100620002F910F900FBE0F901F901895CF92DF92D1
:10063000EF92FF920F931F93CF93DF936C017C0196
:1006400087E0E80EF11CC0E0D0E0062F10E0B80112
:100650000C2E02C0759567950A94E2F76170F70158
:1006600081917F010E9432052196C430D10579F72E
:10067000C601DF91CF911F910F91FF90EF90DF9016
:10068000CF900C947D02CF92DF92EF92FF920F9366
:100690001F93CF93DF93EC01F62E642F8C810E9481
:1006A00032058D818F3F19F060E00E9432058F8501
:1006B0000F2D10E084FF25C06E0187E0C80ED11C0D
:1006C000E12CF12CB8010E2C02C0759567950A94A7
:1006D000E2F76170F60181916F010E943205FFEF30
:1006E000EF1AFF0A88E0E816F10461F7CE01DF9106
:1006F000CF911F910F91FF90EF90DF90CF900C94CE
:100700007D02B80184E0759567958A95E1F7CE0181
:100710000E9416036F2DCE01DF91CF911F910F9193
:10072000FF90EF90DF90CF900C94160341E00E9471
:10073000430381E090E008951F920F920FB60F924D
:1007400011242F933F934F935F936F937F938F93D6
:100750009F93AF93BF93EF93FF93E091EE01F091DE
:10076000EF01309709F451C0968DA685B785858530
:1007700091FF04C09C91892329F447C09C9189234F
:1007800009F043C0A389B4899C9185898095892308
:100790008C93868997890197F1F7608D718DA68575
:1007A000B785558538E020E0CB010197F1F7822F1E
:1007B00090E095958795282F4C91452309F0206866
:1007C000315091F7868D81FD20958091ED0190E06B
:1007D00001968F7399273091EC01381749F0A09159
:1007E000ED01B0E0A455BE4F2C938093ED0103C002
:1007F000868D8160868F828D938D0197F1F7A38915
:10080000B4899C918589892B8C93FF91EF91BF913D
:10081000AF919F918F917F916F915F914F913F9198
:100820002F910F900FBE0F901F901895CF93DF93CD
:1008300090E0FC01E255FF4F2491FC01E656FF4F8A
:100840008491882361F190E0880F991FFC01E85999
:10085000FF4FC591D491FC01E057FF4FA591B49192
:10086000611109C09FB7F8948881209582238883FD
:10087000EC912E230BC0623061F49FB7F89488810D
:10088000322F309583238883EC912E2B2C939FBF9E
:1008900006C08FB7F894E8812E2B28838FBFDF9195
:1008A000CF9108953FB7F8948091CB029091CC02FC
:1008B000A091CD02B091CE0226B5A89B05C02F3FD6
:1008C00019F00196A11DB11D3FBFBA2FA92F982F76
:1008D0008827820F911DA11DB11DBC01CD0142E0F1
:1008E000660F771F881F991F4A95D1F7089540E03A
:1008F000682F82EB92E00C944303EF92FF920F93E8
:100900001F93CF93DF93CDB7DEB762970FB6F894FE
:10091000DEBF0FBECDBF8C01FC011182108213829D
:100920001282158214824AE0CE0101967C01BC013C
:1009300081E090E00E94FE09F70101900020E9F7B4
:100940003197AF014E195F09B701C8010E949302A8
:1009500062960FB6F894DEBF0FBECDBFDF91CF9188
:100960001F910F91FF90EF9008952FB7F894809109
:10097000CF029091D002A091D102B091D2022FBFAC
:1009800080939B0290939C02A0939D02B0939E0241
:1009900083E992E00E941B0297FF26C02FB7F894CC
:1009A0008091CF029091D002A091D102B091D20259
:1009B0002FBF40919B0250919C0260919D027091CB
:1009C0009E02841B950BA60BB70B4091970250918A
:1009D00098026091990270919A0284179507A60770
:1009E000B707B0F28FEF9FEF0895CF93DF93EC013D
:1009F00080918D0290918E020097C9F06881798173
:100A00006115710591F040918F02509190022C81F7
:100A10003D814217530748F00E94960C8C819D81BE
:100A2000909392028093910218C00E94300B8881AB
:100A3000998190938E0280938D028A819B819093FD
:100A4000900280938F028C819D819093920280937B
:100A50009102198218821B821A821D821C82DF91E8
:100A6000CF91089590E0FC01EE58FF4F2491FC01D6
:100A7000E255FF4F3491FC01E656FF4FE491EE231F
:100A800009F43CC0222339F1233091F038F42130AD
:100A9000A9F0223001F584B58F7D12C0273091F086
:100AA0002830A1F02430B9F4809180008F7D03C0FC
:100AB000809180008F77809380000DC084B58F7700
:100AC00084BD09C08091B0008F7703C08091B000D1
:100AD0008F7D8093B000F0E0EE0FFF1FE057FF4FD7
:100AE000A591B4919FB7F894611104C08C91309591
:100AF000382302C0EC913E2B3C939FBF0895CF93C7
:100B0000DF93823028F09091C10298609093C102E7
:100B10008093C5021092C60280E48093C70280E1F0
:100B20008093C80280E58093C90261E08091B6029B
:100B30000E9416048091B7028F3F19F061E00E9475
:100B4000160461E08091B8020E941604C2EBD2E064
:100B50009E01225B32408091C10284FD03C084E08B
:100B600090E002C088E090E02196281739072CF425
:100B700061E08E810E941604EBCF8BE39DE001972C
:100B8000F1F760E08091B6020E94320560E080914A
:100B9000B8020E9432058091B7028F3F19F060E0E1
:100BA0000E9432058091C10284FD20C063E082EB87
:100BB00092E00E941603CBE4D6E4CE010197F1F750
:100BC00063E082EB92E00E9416032197F1F763E065
:100BD00082EB92E00E94160383E592E00197F1F721
:100BE00062E082EB92E00E94160315C080620E94D0
:100BF00077048BE496E40197F1F78091C10280625B
:100C00000E94770483E592E00197F1F78091C10299
:100C100080620E9477048091C10280620E94770402
:100C200084E08093C2028CE00E94770481E00E94FD
:100C300077048BE39FE10197F1F782E08093C30291
:100C400086E0DF91CF910C9477048F929F92AF92C0
:100C5000BF92CF92DF92EF92FF926B017C010E94D4
:100C600052044B015C01C114D104E104F104F1F020
:100C70000E945204DC01CB0188199909AA09BB0919
:100C8000883E9340A105B10570F321E0C21AD10856
:100C9000E108F10888EE880E83E0981EA11CB11CC3
:100CA000C114D104E104F10419F7DDCFFF90EF90F6
:100CB000DF90CF90BF90AF909F908F9008951F923C
:100CC0000F920FB60F9211242F933F938F939F9300
:100CD000AF93BF938091CF029091D002A091D102A7
:100CE000B091D2023091CA0223E0230F2D3720F4B5
:100CF0000196A11DB11D05C026E8230F0296A11D76
:100D0000B11D2093CA028093CF029093D002A0938A
:100D1000D102B093D2028091CB029091CC02A091EB
:100D2000CD02B091CE020196A11DB11D8093CB02E0
:100D30009093CC02A093CD02B093CE02BF91AF911D
:100D40009F918F913F912F910F900FBE0F901F9009
:100D50001895CF93DF93CDB7DEB728970FB6F894E9
:100D6000DEBF0FBECDBF789484B5826084BD84B5EC
:100D7000816084BD85B5826085BD85B5816085BD96
:100D800080916E00816080936E001092810080914E
:100D900081008260809381008091810081608093D6
:100DA0008100809180008160809380008091B100FB
:100DB00084608093B1008091B00081608093B00026
:100DC00080917A00846080937A0080917A008260BA
:100DD00080937A0080917A00816080937A0080917C
:100DE0007A00806880937A001092C100E09100023E
:100DF000F091010282E08083E091FC01F091FD011D
:100E00001082E091FE01F091FF018FEC808310923F
:100E10000802E0910402F091050286E08083E091EF
:100E20000202F0910302808180618083E0910202DE
:100E3000F0910302808188608083E0910202F0914A
:100E40000302808180688083E0910202F0910302B6
:100E500080818F7D808382E00E947F05E1E0809128
:100E6000C5028111E0E0E195F0E0EE54FD4F848988
:100E700080680E9477041092AE021092AD02109228
:100E8000AC021092AB021092AA021092A9028DE954
:100E900091E09093B0028093AF0290919F029631BF
:100EA00008F058C02DEB30E03093AA022093A9023D
:100EB0002BE931E03093AC022093AB022CE231E01D
:100EC0003093AE022093AD0240916800983058F004
:100ED00031E09E3008F430E021E0822F01C0880F1D
:100EE0003A95EAF701C084E0842B8093680098303B
:100EF00038F09E3040F0963148F42CE630E008C0DF
:100F00002DE630E005C02BE630E002C020E030E006
:100F10003093A7022093A602983030F481E001C0FC
:100F2000880F9A95EAF70EC0292F30E09E3018F40A
:100F30002850310902C02E50310981E001C0880FCC
:100F40002A95EAF78093A8028091AF029091B002AF
:100F50000197F1F78091AD029091AE02892B49F192
:100F6000E091EE01F091EF0182E0E339F80709F139
:100F7000309739F0A389B4899C918589809589231C
:100F80008C938091B1028E7F8093B1021092ED011B
:100F90001092EC0183E992E09093EF018093EE01CF
:100FA000E091A602F091A70290818091A802892B7E
:100FB000808366E371E080EF91E00E943F0268E485
:100FC00071E082EB92E00E943F026AE070E080E014
:100FD00090E00E94250680EF91E00E94E90083E9FD
:100FE00092E00E940302892B09F4EFC01A82198251
:100FF0001C821B821E821D8240E050E066E571E08B
:10100000CE0101960E9493020E94B50497FD1BC079
:101010008F8318860D811E810F5F1F4FB801CE018F
:1010200001960E945602882379F329813A818D81A5
:101030009E81BE01695F7F4F820F931F0E94960CB5
:101040001E830D83E1CFCE0101960E94F5048981B4
:101050009A810E94300B40919102509192026091CE
:101060008D0270918E0280EF91E00E948E0042E02E
:1010700050E064E571E080EF91E00E948E00E1E0D5
:101080008091C5028111E0E0E195F0E0EE54FD4F62
:1010900084898F5F80680E9477044091910250910B
:1010A000920260918D0270918E0282EB92E00E941A
:1010B0008E0064E670E080E090E00E94250680915A
:1010C000910290919202892B09F47FC000918D02C8
:1010D00010918E0267E571E0C8010E948D0C892B8A
:1010E000B9F564E671E080EF91E00E943F0264E6AA
:1010F00071E082EB92E00E943F0265E571E080EFD3
:1011000091E00E943F0263E771E080EF91E00E946E
:101110003F0265E571E080EF91E00E943F026EE7DB
:1011200071E080EF91E00E943F0265E571E080EFA1
:1011300091E00E943F02CE0101960E947D04CE0103
:1011400001960E94F50489819A810E94300B3DC06E
:1011500065E871E0C8010E948D0C892BB1F564E649
:1011600071E080EF91E00E943F0265E571E080EF61
:1011700091E00E943F0262E971E080EF91E00E94FD
:101180003F0265E571E080EF91E00E943F026EE969
:1011900071E080EF91E00E943F0265E571E080EF31
:1011A00091E00E943F02CE0101960E947D04CE0193
:1011B00001960E94F50489819A810E94300B65EAAC
:1011C00071E082EB92E00E943F020E949001F7CE14
:1011D00080918D0290918E020E94300B8CE191E003
:1011E00090939402809393028091EE019091EF018D
:1011F0008359924071F4E091A602F091A702908188
:101200008091A8028095892380831092EF0110922B
:10121000EE010895CF92DF92EF92FF921092F301C8
:101220001092F20198EEC92E93E0D92EE12CF12C08
:10123000C092F401D092F501E092F601F092F7012C
:101240008AE091E09093F1018093F00185EC90E0C9
:101250009093FD018093FC0184EC90E09093FF015A
:101260008093FE0180EC90E0909301028093000255
:1012700081EC90E0909303028093020282EC90E074
:10128000909305028093040286EC90E0909307020D
:10129000809306021092090210920A0210920B0229
:1012A00010920C021092B5021092B4028EE291E0FC
:1012B0009093B3028093B20284E08093B6028FEFE2
:1012C0008093B70285E08093B80286E08093B902EC
:1012D00087E08093BA0288E08093BB0289E0809324
:1012E000BC021092BD021092BE021092BF02109278
:1012F000C0021092C10281E00E947F051092960206
:1013000010929502C0929702D0929802E0929902B0
:10131000F0929A028CE191E0909394028093930270
:101320001092AA021092A9021092AC021092AB0283
:101330001092AE021092AD021092B0021092AF0263
:101340006091B1026E7F6D7F6093B10266956170AE
:1013500081E0682783E00E94320561E083E00E941B
:101360001604E1EBF0E0E491E093A302EDE9F0E094
:10137000E491F0E0EE0FFF1FE057FF4F859194914D
:101380009093A5028093A40260E082E00E9416047C
:101390008091B10281FD04C061E082E00E943205CB
:1013A00082E080939F02E0EBF0E0E491E093A00202
:1013B000ECE9F0E0E491F0E0EE0FFF1FEA57FF4F99
:1013C000859194919093A2028093A10210928E0233
:1013D00010928D021092900210928F02109292023F
:1013E0001092910240E050E066E571E08DE892E0F5
:1013F000FF90EF90DF90CF900C949302BB274A3080
:1014000031F4992322F4BDE2909581959F4F0C947D
:101410000A0ABB27FB015527AA27880F991FAA1F75
:10142000A41710F0A41B83955051B9F7A05DAA33FF
:1014300008F0A95DA193009779F7B111B1931192CA
:10144000CB010C94230ADC01FC01672F71917723F7
:10145000E1F7329704C07C916D9370836291AE176F
:10146000BF07C8F308952F923F924F925F926F92F9
:101470007F928F929F92AF92BF92CF92DF92EF9224
:10148000FF920F931F93CF93DF93CDB7DEB7CA1BA5
:10149000DB0B0FB6F894DEBF0FBECDBF09942A88D0
:1014A000398848885F846E847D848C849B84AA8478
:1014B000B984C884DF80EE80FD800C811B81AA8105
:1014C000B981CE0FD11D0FB6F894DEBF0FBECDBFD0
:1014D000ED01089597FB072E16F4009407D077FDD1
:1014E00009D00E947E0A07FC05D03EF490958195B4
:1014F0009F4F0895709561957F4F0895AA1BBB1B60
:1015000051E107C0AA1FBB1FA617B70710F0A61B03
:10151000B70B881F991F5A95A9F780959095BC0124
:10152000CD010895EE0FFF1F0590F491E02D099471
:101530000F931F93CF93DF938230910510F482E0D5
:1015400090E0E091D502F091D60220E030E0A0E0FA
:10155000B0E0309719F14081518102811381481721
:101560005907C8F08417950769F4109731F012965F
:101570000C93129713961C9327C00093D5021093D7
:10158000D60222C02115310519F04217530718F46D
:101590009A01BD01EF01DF01F801DBCF2115310513
:1015A000F9F0281B390B2430310580F48A819B81A6
:1015B0006115710521F0FB019383828304C0909330
:1015C000D6028093D502FE01329644C0FE01E20F9E
:1015D000F31F8193919322503109398328833AC0B4
:1015E0002091D3023091D402232B41F420910201A7
:1015F000309103013093D4022093D3022091000153
:10160000309101012115310541F42DB73EB74091CC
:10161000040150910501241B350BE091D302F09198
:10162000D402E217F307A0F42E1B3F0B281739074B
:1016300078F0AC014E5F5F4F2417350748F04E0F2E
:101640005F1F5093D4024093D3028193919302C0C1
:10165000E0E0F0E0CF01DF91CF911F910F9108956D
:10166000CF93DF93009709F481C0FC013297138276
:101670001282A091D502B091D602109781F42081F8
:101680003181820F931F2091D3023091D402281709
:10169000390751F5F093D402E093D30267C0ED010E
:1016A00020E030E0CE17DF0740F44A815B819E01E5
:1016B00041155105F1F0EA01F5CFD383C283408192
:1016C0005181840F951FC817D90759F488819981D2
:1016D000840F951F0296918380838A819B819383D7
:1016E00082832115310529F4F093D602E093D502C7
:1016F0003DC0E901FB83EA8349915991C40FD51F8D
:10170000EC17FD0761F480819181840F951F02968B
:10171000E90199838883828193819B838A83E0E0B6
:10172000F0E012968D919C911397009719F0FD01AE
:10173000DC01F7CF8D919C9111979D012E5F3F4F5A
:10174000820F931F2091D3023091D40228173907BA
:1017500069F4309729F41092D6021092D50202C093
:1017600013821282B093D402A093D302DF91CF915F
:101770000895A0E0B0E0EFEBFBE00C94370AEC0139
:10178000009721F4CB010E94980AB4C0FC01E60F37
:10179000F71F9C0122503109E217F30708F4A8C093
:1017A000D9010D911C91119706171707B0F005305C
:1017B000110508F49BC0C80104978617970708F421
:1017C00095C002501109061B170B019311936D93DD
:1017D0007C93CF010E94300B89C05B01A01AB10A33
:1017E0004C01800E911EA091D502B091D602612CC1
:1017F000712CE12CF12C109709F446C08D919C912D
:101800001197A815B905B1F56C0142E0C40ED11CC1
:10181000CA14DB0478F14C018A189B08640142E089
:10182000C40ED11C1296BC9012971396AC91B5E0E1
:10183000CB16D10440F0B282A38391828082D90179
:101840006D937C9309C00E5F1F4F800F911FF901AC
:1018500091838083EB2DFA2FE114F10431F0D7014D
:101860001396FC93EE93129741C0F093D602E09347
:10187000D5023CC06816790608F43C017D01129639
:101880000D90BC91A02DB7CF8091D3029091D4023E
:1018900088169906E1F466167706C8F4809100016F
:1018A00090910101009741F48DB79EB740910401DA
:1018B00050910501841B950BE817F907C8F4F093C4
:1018C000D402E093D302F901718360830FC0CB018E
:1018D0000E94980A7C01009759F0A801BE010E945D
:1018E000840CCE010E94300BC70104C0CE0102C09F
:1018F00080E090E0CDB7DEB7EEE00C94530A81E0D3
:1019000090E0F8940C949D0CFB01DC0102C0019066
:101910000D9241505040D8F70895FB01DC018D91A4
:10192000019080190110D9F3990B0895FB01DC0196
:1019300001900D920020E1F7089510E0C2E6D0E09A
:1019400004C0FE010E94920A2196C336D107C9F74E
:04195000F894FFCF39
:101954000000D70280000000000021018E00B800C2
:101964006E01E900C700DB0000000000B3018E0037
:101974003C02B20103021B029A010000000096031C
:101984008E003C028D0057616974696E6720466F52
:101994007220496E70757400456E74657220496ECC
:1019A400707574000D0A00343330303737393730EE
:1019B40044414500416363657373204772616E74EB
:1019C4006564004E414D452D417279616E00496454
:1019D4003A343232003138303038393230414331E0
:1019E40044004E414D452D416B7368617400496458
:0C19F4003A3430360052657472790000FD
:00000001FF
