:100000000C945C000C9479000C9479000C947900A9
:100010000C9479000C9479000C9479000C9479007C
:100020000C9479000C9479000C9479000C9479006C
:100030000C9479000C9479000C9479000C9479005C
:100040000C9407010C9479000C9479000C947900BD
:100050000C9479000C9479000C9479000C9479003C
:100060000C9479000C947900000000002400270013
:100070002A0000000000250028002B0004040404CE
:100080000404040402020202020203030303030342
:10009000010204081020408001020408102001021F
:1000A00004081020000000080002010000030407FB
:1000B000000000000000000011241FBECFEFD8E0B8
:1000C000DEBFCDBF11E0A0E0B1E0EEE8F4E002C099
:1000D00005900D92A03AB107D9F721E0A0EAB1E06E
:1000E00001C01D92A93AB207E1F70E9451010C9498
:1000F00045020C94000090E0FC01EC55FF4F249168
:10010000FC01E057FF4F3491FC01E458FF4FE491AC
:10011000EE2309F43CC0222339F1233091F038F466
:100120002130A9F0223001F584B58F7D12C027302F
:1001300091F02830A1F02430B9F4809180008F7DB7
:1001400003C0809180008F77809380000DC084B5BC
:100150008F7784BD09C08091B0008F7703C08091F4
:10016000B0008F7D8093B000F0E0EE0FFF1FEE58DF
:10017000FF4FA591B4919FB7F894611104C08C9181
:100180003095382302C0EC913E2B3C939FBF0895DD
:100190003FB7F8948091A5019091A601A091A70185
:1001A000B091A80126B5A89B05C02F3F19F0019674
:1001B000A11DB11D3FBFBA2FA92F982F8827820FED
:1001C000911DA11DB11DBC01CD0142E0660F771F3D
:1001D000881F991F4A95D1F70895CF92DF92EF9229
:1001E000FF920E94C8006B017C010E94C800DC01E4
:1001F000CB018C199D09AE09BF09883E9340A1052A
:10020000B10598F3FF90EF90DF90CF9008951F9283
:100210000F920FB60F9211242F933F938F939F93BA
:10022000AF93BF938091A1019091A201A091A301EE
:10023000B091A4013091A00123E0230F2D3720F4C9
:100240000196A11DB11D05C026E8230F0296A11D30
:10025000B11D2093A0018093A1019093A201A093CE
:10026000A301B093A4018091A5019091A601A09152
:10027000A701B091A8010196A11DB11D8093A50110
:100280009093A601A093A701B093A801BF91AF914D
:100290009F918F913F912F910F900FBE0F901F90C4
:1002A0001895789484B5826084BD84B5816084BDDE
:1002B00085B5826085BD85B5816085BD80916E0004
:1002C000816080936E001092810080918100826035
:1002D0008093810080918100816080938100809172
:1002E00080008160809380008091B1008460809361
:1002F000B1008091B00081608093B00080917A005D
:10030000846080937A0080917A00826080937A0082
:1003100080917A00816080937A0080917A00806871
:1003200080937A001092C10022E030E0F901E0579A
:10033000FF4F4491F901E458FF4F8491882399F0CD
:1003400090E0880F991FFC01E859FF4FA591B491E7
:10035000FC01EE58FF4F859194918FB7F894EC9182
:10036000E42BEC938FBF2F5F3F4F2B303105F1F61D
:100370005AE0652E712C60E0862E60E0962EE12C0E
:10038000F12CC701B3010E941D0224E0660F771F04
:100390002A95E1F78B0100501F4FEC0134E0CC0FA0
:1003A000DD1F3A95E1F7C050DF4F45E0C42ED12C58
:1003B000580192E0592E60E089E00E947B0061E0E4
:1003C0008AE00E947B00F5016081F2E0AF0EB11C73
:1003D000852D0E947B00539489E05812ECCF0E9437
:1003E000ED0061E089E00E947B0060E08AE00E940D
:1003F0007B005E0182E0582EF5016081F2E0AF0ED5
:10040000B11C852D0E947B00539489E05812F4CFD3
:100410000E94ED00E1E0CE1AD10851F6FFEFEF1A8D
:10042000FF0A84E6E816F10409F0ABCF81149104C9
:1004300009F4A5CF0E940000A2CF97FB072E16F467
:10044000009407D077FD09D00E94310207FC05D047
:100450003EF4909581959F4F0895709561957F4FDB
:100460000895AA1BBB1B51E107C0AA1FBB1FA617FB
:10047000B70710F0A61BB70B881F991F5A95A9F74D
:0E04800080959095BC01CD010895F894FFCFB2
:10048E000100010001000100010001000000010057
:10049E00000001000100000000000000000000004C
:1004AE000100010000000100010000000100000039
:1004BE000100010001000100000000000100000029
:1004CE00000001000100000000000100010000001A
:1004DE000100000001000100000001000100000009
:1004EE0001000000010001000100010001000100F7
:1004FE0001000100010000000000000000000000EB
:10050E0001000100010001000100010001000100D5
:10051E0001000100010001000000010001000100C6
:00000001FF
